{
  "contractName": "EWcoin",
  "abi": [
    {
      "anonymous": false,
      "inputs": [
        {
          "indexed": false,
          "internalType": "address",
          "name": "sender",
          "type": "address"
        },
        {
          "indexed": false,
          "internalType": "address",
          "name": "receiver",
          "type": "address"
        },
        {
          "indexed": false,
          "internalType": "uint256",
          "name": "amount",
          "type": "uint256"
        }
      ],
      "name": "CoinTransfer",
      "type": "event"
    },
    {
      "constant": true,
      "inputs": [
        {
          "internalType": "address",
          "name": "",
          "type": "address"
        }
      ],
      "name": "coinBalanceOf",
      "outputs": [
        {
          "internalType": "uint256",
          "name": "",
          "type": "uint256"
        }
      ],
      "payable": false,
      "stateMutability": "view",
      "type": "function"
    },
    {
      "constant": false,
      "inputs": [
        {
          "internalType": "uint256",
          "name": "supply",
          "type": "uint256"
        }
      ],
      "name": "ewcoin",
      "outputs": [],
      "payable": false,
      "stateMutability": "nonpayable",
      "type": "function"
    },
    {
      "constant": false,
      "inputs": [
        {
          "internalType": "address",
          "name": "receiver",
          "type": "address"
        },
        {
          "internalType": "uint256",
          "name": "amount",
          "type": "uint256"
        }
      ],
      "name": "sendCoin",
      "outputs": [
        {
          "internalType": "bool",
          "name": "sufficient",
          "type": "bool"
        }
      ],
      "payable": false,
      "stateMutability": "nonpayable",
      "type": "function"
    }
  ],
  "bytecode": "0x608060405234801561001057600080fd5b50610358806100206000396000f3fe608060405234801561001057600080fd5b50600436106100415760003560e01c806390b98a1114610046578063bbd39ac0146100ac578063c45324f714610104575b600080fd5b6100926004803603604081101561005c57600080fd5b81019080803573ffffffffffffffffffffffffffffffffffffffff16906020019092919080359060200190929190505050610132565b604051808215151515815260200191505060405180910390f35b6100ee600480360360208110156100c257600080fd5b81019080803573ffffffffffffffffffffffffffffffffffffffff1690602001909291905050506102c5565b6040518082815260200191505060405180910390f35b6101306004803603602081101561011a57600080fd5b81019080803590602001909291905050506102dd565b005b6000816000803373ffffffffffffffffffffffffffffffffffffffff1673ffffffffffffffffffffffffffffffffffffffff16815260200190815260200160002054101561018357600090506102bf565b816000803373ffffffffffffffffffffffffffffffffffffffff1673ffffffffffffffffffffffffffffffffffffffff16815260200190815260200160002060008282540392505081905550816000808573ffffffffffffffffffffffffffffffffffffffff1673ffffffffffffffffffffffffffffffffffffffff168152602001908152602001600020600082825401925050819055507f16cdf1707799c6655baac6e210f52b94b7cec08adcaf9ede7dfe8649da926146338484604051808473ffffffffffffffffffffffffffffffffffffffff1673ffffffffffffffffffffffffffffffffffffffff1681526020018373ffffffffffffffffffffffffffffffffffffffff1673ffffffffffffffffffffffffffffffffffffffff168152602001828152602001935050505060405180910390a1600190505b92915050565b60006020528060005260406000206000915090505481565b806000803373ffffffffffffffffffffffffffffffffffffffff1673ffffffffffffffffffffffffffffffffffffffff168152602001908152602001600020819055505056fea265627a7a7231582023efc936353e42109979bdada708d4cbcfcced351658c931b371009c3c732d3b64736f6c63430005100032",
  "source": "pragma solidity >=0.4.21 <0.7.0;\n\ncontract EWcoin { \n    mapping (address => uint) public coinBalanceOf;\n    event CoinTransfer(address sender, address receiver, uint amount);\n\n  /* Initializes contract with initial supply tokens to the creator of the contract */\n  function ewcoin(uint supply) public {\n        coinBalanceOf[msg.sender] = supply;\n    }\n\n  /* Very simple trade function */\n    function sendCoin(address receiver, uint amount) public returns(bool sufficient) {\n        if (coinBalanceOf[msg.sender] < amount) return false;\n        coinBalanceOf[msg.sender] -= amount;\n        coinBalanceOf[receiver] += amount;\n        emit CoinTransfer(msg.sender, receiver, amount);\n        return true;\n    }\n}",
  "sourcePath": "/home/shashank/dev/Projects/hackvsit/contracts/EWcoin.sol",
  "compiler": {
    "name": "solc",
    "version": "0.5.16+commit.9c3226ce.Emscripten.clang"
  },
  "schemaVersion": "3.0.23",
  "updatedAt": "2020-02-01T04:56:48.762Z",
  "networkType": "ethereum",
  "devdoc": {
    "methods": {}
  },
  "userdoc": {
    "methods": {}
  }
}